{
	"Counter.sol": {
		"Counter": {
			"abi": [
				{
					"inputs": [],
					"name": "count",
					"outputs": [
						{
							"internalType": "uint256",
							"name": "",
							"type": "uint256"
						}
					],
					"stateMutability": "view",
					"type": "function"
				},
				{
					"inputs": [],
					"name": "dec",
					"outputs": [],
					"stateMutability": "nonpayable",
					"type": "function"
				},
				{
					"inputs": [],
					"name": "inc",
					"outputs": [],
					"stateMutability": "nonpayable",
					"type": "function"
				}
			],
			"devdoc": {
				"kind": "dev",
				"methods": {},
				"version": 1
			},
			"evm": {
				"assembly": "    /* \"Counter.sol\":60:306  contract Counter {\r... */\n  mstore(0x40, 0x80)\n  callvalue\n  dup1\n  iszero\n  tag_1\n  jumpi\n  0x00\n  dup1\n  revert\ntag_1:\n  pop\n  dataSize(sub_0)\n  dup1\n  dataOffset(sub_0)\n  0x00\n  codecopy\n  0x00\n  return\nstop\n\nsub_0: assembly {\n        /* \"Counter.sol\":60:306  contract Counter {\r... */\n      mstore(0x40, 0x80)\n      callvalue\n      dup1\n      iszero\n      tag_1\n      jumpi\n      0x00\n      dup1\n      revert\n    tag_1:\n      pop\n      jumpi(tag_2, lt(calldatasize, 0x04))\n      shr(0xe0, calldataload(0x00))\n      dup1\n      0x06661abd\n      eq\n      tag_3\n      jumpi\n      dup1\n      0x371303c0\n      eq\n      tag_4\n      jumpi\n      dup1\n      0xb3bcfa82\n      eq\n      tag_5\n      jumpi\n    tag_2:\n      0x00\n      dup1\n      revert\n        /* \"Counter.sol\":84:101  uint public count */\n    tag_3:\n      tag_6\n      tag_7\n      jump\t// in\n    tag_6:\n      mload(0x40)\n      tag_8\n      swap2\n      swap1\n      tag_9\n      jump\t// in\n    tag_8:\n      mload(0x40)\n      dup1\n      swap2\n      sub\n      swap1\n      return\n        /* \"Counter.sol\":110:161  function inc() external {\r... */\n    tag_4:\n      tag_10\n      tag_11\n      jump\t// in\n    tag_10:\n      stop\n        /* \"Counter.sol\":169:303  function dec() external {\r... */\n    tag_5:\n      tag_12\n      tag_13\n      jump\t// in\n    tag_12:\n      stop\n        /* \"Counter.sol\":84:101  uint public count */\n    tag_7:\n      sload(0x00)\n      dup2\n      jump\t// out\n        /* \"Counter.sol\":110:161  function inc() external {\r... */\n    tag_11:\n        /* \"Counter.sol\":152:153  1 */\n      0x01\n        /* \"Counter.sol\":145:150  count */\n      0x00\n      dup1\n        /* \"Counter.sol\":145:153  count+=1 */\n      dup3\n      dup3\n      sload\n      tag_15\n      swap2\n      swap1\n      tag_16\n      jump\t// in\n    tag_15:\n      swap3\n      pop\n      pop\n      dup2\n      swap1\n      sstore\n      pop\n        /* \"Counter.sol\":110:161  function inc() external {\r... */\n      jump\t// out\n        /* \"Counter.sol\":169:303  function dec() external {\r... */\n    tag_13:\n        /* \"Counter.sol\":217:218  0 */\n      0x00\n        /* \"Counter.sol\":208:213  count */\n      dup1\n      sload\n        /* \"Counter.sol\":208:218  count == 0 */\n      eq\n        /* \"Counter.sol\":204:296  if (count == 0) {\r... */\n      iszero\n      tag_18\n      jumpi\n        /* \"Counter.sol\":243:244  0 */\n      0x00\n        /* \"Counter.sol\":235:240  count */\n      dup1\n        /* \"Counter.sol\":235:244  count = 0 */\n      dup2\n      swap1\n      sstore\n      pop\n        /* \"Counter.sol\":204:296  if (count == 0) {\r... */\n      jump(tag_19)\n    tag_18:\n        /* \"Counter.sol\":283:284  1 */\n      0x01\n        /* \"Counter.sol\":276:281  count */\n      0x00\n      dup1\n        /* \"Counter.sol\":276:284  count-=1 */\n      dup3\n      dup3\n      sload\n      tag_20\n      swap2\n      swap1\n      tag_21\n      jump\t// in\n    tag_20:\n      swap3\n      pop\n      pop\n      dup2\n      swap1\n      sstore\n      pop\n        /* \"Counter.sol\":204:296  if (count == 0) {\r... */\n    tag_19:\n        /* \"Counter.sol\":169:303  function dec() external {\r... */\n      jump\t// out\n        /* \"#utility.yul\":7:125   */\n    tag_23:\n        /* \"#utility.yul\":94:118   */\n      tag_25\n        /* \"#utility.yul\":112:117   */\n      dup2\n        /* \"#utility.yul\":94:118   */\n      tag_26\n      jump\t// in\n    tag_25:\n        /* \"#utility.yul\":89:92   */\n      dup3\n        /* \"#utility.yul\":82:119   */\n      mstore\n        /* \"#utility.yul\":7:125   */\n      pop\n      pop\n      jump\t// out\n        /* \"#utility.yul\":131:353   */\n    tag_9:\n        /* \"#utility.yul\":224:228   */\n      0x00\n        /* \"#utility.yul\":262:264   */\n      0x20\n        /* \"#utility.yul\":251:260   */\n      dup3\n        /* \"#utility.yul\":247:265   */\n      add\n        /* \"#utility.yul\":239:265   */\n      swap1\n      pop\n        /* \"#utility.yul\":275:346   */\n      tag_28\n        /* \"#utility.yul\":343:344   */\n      0x00\n        /* \"#utility.yul\":332:341   */\n      dup4\n        /* \"#utility.yul\":328:345   */\n      add\n        /* \"#utility.yul\":319:325   */\n      dup5\n        /* \"#utility.yul\":275:346   */\n      tag_23\n      jump\t// in\n    tag_28:\n        /* \"#utility.yul\":131:353   */\n      swap3\n      swap2\n      pop\n      pop\n      jump\t// out\n        /* \"#utility.yul\":359:664   */\n    tag_16:\n        /* \"#utility.yul\":399:402   */\n      0x00\n        /* \"#utility.yul\":418:438   */\n      tag_30\n        /* \"#utility.yul\":436:437   */\n      dup3\n        /* \"#utility.yul\":418:438   */\n      tag_26\n      jump\t// in\n    tag_30:\n        /* \"#utility.yul\":413:438   */\n      swap2\n      pop\n        /* \"#utility.yul\":452:472   */\n      tag_31\n        /* \"#utility.yul\":470:471   */\n      dup4\n        /* \"#utility.yul\":452:472   */\n      tag_26\n      jump\t// in\n    tag_31:\n        /* \"#utility.yul\":447:472   */\n      swap3\n      pop\n        /* \"#utility.yul\":606:607   */\n      dup3\n        /* \"#utility.yul\":538:604   */\n      0xffffffffffffffffffffffffffffffffffffffffffffffffffffffffffffffff\n        /* \"#utility.yul\":534:608   */\n      sub\n        /* \"#utility.yul\":531:532   */\n      dup3\n        /* \"#utility.yul\":528:609   */\n      gt\n        /* \"#utility.yul\":525:632   */\n      iszero\n      tag_32\n      jumpi\n        /* \"#utility.yul\":612:630   */\n      tag_33\n      tag_34\n      jump\t// in\n    tag_33:\n        /* \"#utility.yul\":525:632   */\n    tag_32:\n        /* \"#utility.yul\":656:657   */\n      dup3\n        /* \"#utility.yul\":653:654   */\n      dup3\n        /* \"#utility.yul\":649:658   */\n      add\n        /* \"#utility.yul\":642:658   */\n      swap1\n      pop\n        /* \"#utility.yul\":359:664   */\n      swap3\n      swap2\n      pop\n      pop\n      jump\t// out\n        /* \"#utility.yul\":670:861   */\n    tag_21:\n        /* \"#utility.yul\":710:714   */\n      0x00\n        /* \"#utility.yul\":730:750   */\n      tag_36\n        /* \"#utility.yul\":748:749   */\n      dup3\n        /* \"#utility.yul\":730:750   */\n      tag_26\n      jump\t// in\n    tag_36:\n        /* \"#utility.yul\":725:750   */\n      swap2\n      pop\n        /* \"#utility.yul\":764:784   */\n      tag_37\n        /* \"#utility.yul\":782:783   */\n      dup4\n        /* \"#utility.yul\":764:784   */\n      tag_26\n      jump\t// in\n    tag_37:\n        /* \"#utility.yul\":759:784   */\n      swap3\n      pop\n        /* \"#utility.yul\":803:804   */\n      dup3\n        /* \"#utility.yul\":800:801   */\n      dup3\n        /* \"#utility.yul\":797:805   */\n      lt\n        /* \"#utility.yul\":794:828   */\n      iszero\n      tag_38\n      jumpi\n        /* \"#utility.yul\":808:826   */\n      tag_39\n      tag_34\n      jump\t// in\n    tag_39:\n        /* \"#utility.yul\":794:828   */\n    tag_38:\n        /* \"#utility.yul\":853:854   */\n      dup3\n        /* \"#utility.yul\":850:851   */\n      dup3\n        /* \"#utility.yul\":846:855   */\n      sub\n        /* \"#utility.yul\":838:855   */\n      swap1\n      pop\n        /* \"#utility.yul\":670:861   */\n      swap3\n      swap2\n      pop\n      pop\n      jump\t// out\n        /* \"#utility.yul\":867:944   */\n    tag_26:\n        /* \"#utility.yul\":904:911   */\n      0x00\n        /* \"#utility.yul\":933:938   */\n      dup2\n        /* \"#utility.yul\":922:938   */\n      swap1\n      pop\n        /* \"#utility.yul\":867:944   */\n      swap2\n      swap1\n      pop\n      jump\t// out\n        /* \"#utility.yul\":950:1130   */\n    tag_34:\n        /* \"#utility.yul\":998:1075   */\n      0x4e487b7100000000000000000000000000000000000000000000000000000000\n        /* \"#utility.yul\":995:996   */\n      0x00\n        /* \"#utility.yul\":988:1076   */\n      mstore\n        /* \"#utility.yul\":1095:1099   */\n      0x11\n        /* \"#utility.yul\":1092:1093   */\n      0x04\n        /* \"#utility.yul\":1085:1100   */\n      mstore\n        /* \"#utility.yul\":1119:1123   */\n      0x24\n        /* \"#utility.yul\":1116:1117   */\n      0x00\n        /* \"#utility.yul\":1109:1124   */\n      revert\n\n    auxdata: 0xa2646970667358221220675d85126734f601bebf3c2ee1fd444a30772633dfba9a179cef894498eff4a864736f6c63430008070033\n}\n",
				"bytecode": {
					"linkReferences": {},
					"object": "608060405234801561001057600080fd5b506101ee806100206000396000f3fe608060405234801561001057600080fd5b50600436106100415760003560e01c806306661abd14610046578063371303c014610064578063b3bcfa821461006e575b600080fd5b61004e610078565b60405161005b91906100da565b60405180910390f35b61006c61007e565b005b610076610099565b005b60005481565b600160008082825461009091906100f5565b92505081905550565b6000805414156100af57600080819055506100c9565b60016000808282546100c1919061014b565b925050819055505b565b6100d48161017f565b82525050565b60006020820190506100ef60008301846100cb565b92915050565b60006101008261017f565b915061010b8361017f565b9250827fffffffffffffffffffffffffffffffffffffffffffffffffffffffffffffffff038211156101405761013f610189565b5b828201905092915050565b60006101568261017f565b91506101618361017f565b92508282101561017457610173610189565b5b828203905092915050565b6000819050919050565b7f4e487b7100000000000000000000000000000000000000000000000000000000600052601160045260246000fdfea2646970667358221220675d85126734f601bebf3c2ee1fd444a30772633dfba9a179cef894498eff4a864736f6c63430008070033",
					"opcodes": "PUSH1 0x80 PUSH1 0x40 MSTORE CALLVALUE DUP1 ISZERO PUSH2 0x10 JUMPI PUSH1 0x0 DUP1 REVERT JUMPDEST POP PUSH2 0x1EE DUP1 PUSH2 0x20 PUSH1 0x0 CODECOPY PUSH1 0x0 RETURN INVALID PUSH1 0x80 PUSH1 0x40 MSTORE CALLVALUE DUP1 ISZERO PUSH2 0x10 JUMPI PUSH1 0x0 DUP1 REVERT JUMPDEST POP PUSH1 0x4 CALLDATASIZE LT PUSH2 0x41 JUMPI PUSH1 0x0 CALLDATALOAD PUSH1 0xE0 SHR DUP1 PUSH4 0x6661ABD EQ PUSH2 0x46 JUMPI DUP1 PUSH4 0x371303C0 EQ PUSH2 0x64 JUMPI DUP1 PUSH4 0xB3BCFA82 EQ PUSH2 0x6E JUMPI JUMPDEST PUSH1 0x0 DUP1 REVERT JUMPDEST PUSH2 0x4E PUSH2 0x78 JUMP JUMPDEST PUSH1 0x40 MLOAD PUSH2 0x5B SWAP2 SWAP1 PUSH2 0xDA JUMP JUMPDEST PUSH1 0x40 MLOAD DUP1 SWAP2 SUB SWAP1 RETURN JUMPDEST PUSH2 0x6C PUSH2 0x7E JUMP JUMPDEST STOP JUMPDEST PUSH2 0x76 PUSH2 0x99 JUMP JUMPDEST STOP JUMPDEST PUSH1 0x0 SLOAD DUP2 JUMP JUMPDEST PUSH1 0x1 PUSH1 0x0 DUP1 DUP3 DUP3 SLOAD PUSH2 0x90 SWAP2 SWAP1 PUSH2 0xF5 JUMP JUMPDEST SWAP3 POP POP DUP2 SWAP1 SSTORE POP JUMP JUMPDEST PUSH1 0x0 DUP1 SLOAD EQ ISZERO PUSH2 0xAF JUMPI PUSH1 0x0 DUP1 DUP2 SWAP1 SSTORE POP PUSH2 0xC9 JUMP JUMPDEST PUSH1 0x1 PUSH1 0x0 DUP1 DUP3 DUP3 SLOAD PUSH2 0xC1 SWAP2 SWAP1 PUSH2 0x14B JUMP JUMPDEST SWAP3 POP POP DUP2 SWAP1 SSTORE POP JUMPDEST JUMP JUMPDEST PUSH2 0xD4 DUP2 PUSH2 0x17F JUMP JUMPDEST DUP3 MSTORE POP POP JUMP JUMPDEST PUSH1 0x0 PUSH1 0x20 DUP3 ADD SWAP1 POP PUSH2 0xEF PUSH1 0x0 DUP4 ADD DUP5 PUSH2 0xCB JUMP JUMPDEST SWAP3 SWAP2 POP POP JUMP JUMPDEST PUSH1 0x0 PUSH2 0x100 DUP3 PUSH2 0x17F JUMP JUMPDEST SWAP2 POP PUSH2 0x10B DUP4 PUSH2 0x17F JUMP JUMPDEST SWAP3 POP DUP3 PUSH32 0xFFFFFFFFFFFFFFFFFFFFFFFFFFFFFFFFFFFFFFFFFFFFFFFFFFFFFFFFFFFFFFFF SUB DUP3 GT ISZERO PUSH2 0x140 JUMPI PUSH2 0x13F PUSH2 0x189 JUMP JUMPDEST JUMPDEST DUP3 DUP3 ADD SWAP1 POP SWAP3 SWAP2 POP POP JUMP JUMPDEST PUSH1 0x0 PUSH2 0x156 DUP3 PUSH2 0x17F JUMP JUMPDEST SWAP2 POP PUSH2 0x161 DUP4 PUSH2 0x17F JUMP JUMPDEST SWAP3 POP DUP3 DUP3 LT ISZERO PUSH2 0x174 JUMPI PUSH2 0x173 PUSH2 0x189 JUMP JUMPDEST JUMPDEST DUP3 DUP3 SUB SWAP1 POP SWAP3 SWAP2 POP POP JUMP JUMPDEST PUSH1 0x0 DUP2 SWAP1 POP SWAP2 SWAP1 POP JUMP JUMPDEST PUSH32 0x4E487B7100000000000000000000000000000000000000000000000000000000 PUSH1 0x0 MSTORE PUSH1 0x11 PUSH1 0x4 MSTORE PUSH1 0x24 PUSH1 0x0 REVERT INVALID LOG2 PUSH5 0x6970667358 0x22 SLT KECCAK256 PUSH8 0x5D85126734F601BE 0xBF EXTCODECOPY 0x2E 0xE1 REVERT DIFFICULTY 0x4A ADDRESS PUSH24 0x2633DFBA9A179CEF894498EFF4A864736F6C634300080700 CALLER "
				},
				"gasEstimates": {
					"creation": {
						"codeDepositCost": "98800",
						"executionCost": "147",
						"totalCost": "98947"
					},
					"external": {
						"count()": "2407",
						"dec()": "infinite",
						"inc()": "infinite"
					}
				},
				"methodIdentifiers": {
					"count()": "06661abd",
					"dec()": "b3bcfa82",
					"inc()": "371303c0"
				}
			},
			"storageLayout": {
				"storage": [
					{
						"astId": 3,
						"contract": "Counter.sol:Counter",
						"label": "count",
						"offset": 0,
						"slot": "0",
						"type": "t_uint256"
					}
				],
				"types": {
					"t_uint256": {
						"encoding": "inplace",
						"label": "uint256",
						"numberOfBytes": "32"
					}
				}
			},
			"userdoc": {
				"kind": "user",
				"methods": {},
				"version": 1
			}
		}
	}
}